:020000040800F2
:100000000000012061150008BB080008C1080008B5
:10001000C7080008CD080008D30800080000000049
:10002000000000000000000000000000D9080008E7
:10003000E508000800000000F1080008FD080008BD
:10004000B1150008B115000809090008B11500082C
:10005000B1150008B1150008B1150008B115000868
:10006000B1150008B1150008B11500081D090008F8
:10007000B1150008B1150008B1150008B115000848
:10008000B1150008B1150008B1150008B115000838
:1000900000000000B1150008B1150008B1150008F6
:1000A000B1150008B1150008B1150008B115000818
:1000B000B1150008B1150008B1150008B115000808
:1000C000B1150008B1150008B1150008B1150008F8
:1000D00031090008B1150008B1150008B115000874
:1000E000B11500084509000855090008B1150008B8
:1000F000B11500080000000000000000B115000864
:10010000B1150008B115000869090008B11500080B
:10011000B1150008B1150008B1150008B1150008A7
:10012000B1150008B1150008B1150008B115000897
:08013000B1150008B11500082B
:1001380010B5054C237833B9044B13B10448AFF319
:1001480000800123237010BD1C0000200000000067
:10015800CCC0000808B5034B1BB103490348AFF3F3
:10016800008008BD0000000020000020CCC000086E
:10017800034613F8012B002AFBD1181A01387047DF
:1001880053B94AB9002908BF00281CBF4FF0FF31F6
:100198004FF0FF3000F074B9ADF1080C6DE904CEF2
:1001A80000F006F8DDF804E0DDE9022304B070474A
:1001B8002DE9F047089E0D4604468846002B4DD190
:1001C8008A42944668D9B2FA82F252B101FA02F32D
:1001D800C2F1200120FA01F10CFA02FC41EA0308FD
:1001E80094404FEA1C45210CB8FBF5FE1FFA8CF72A
:1001F80005FB1E8341EA03430EFB07F199420BD925
:100208001CEB03030EF1FF3080F01E81994240F28F
:100218001B81AEF1020E63445B1AA4B2B3FBF5F086
:1002280005FB103344EA034400FB07F7A7420AD949
:100238001CEB040400F1FF3380F00881A74240F270
:10024800058164440238E41B40EA0E4000211EB1D7
:10025800D4400023C6E90043BDE8F0878B4208D9A3
:10026800002E00F0EE800021C6E900050846BDE832
:10027800F087B3FA83F100294AD1AB4202D3824214
:1002880000F2F980841A65EB030301209846002EDA
:10029800E2D0C6E90048DFE702B9FFDEB2FA82F22F
:1002A800002A40F09180A1EB0C054FEA1C471FFA89
:1002B8008CFE0121B5FBF7F307FB1350250C45EA2B
:1002C80000450EFB03F0A84208D91CEB050503F115
:1002D800FF3802D2A84200F2CB8043462D1AA4B2BE
:1002E800B5FBF7F007FB105544EA05440EFB00FE8A
:1002F800A64508D91CEB040400F1FF3502D2A64537
:1003080000F2BB802846A4EB0E0440EA03409EE7B7
:10031800C1F120078B4022FA07FC4CEA030C20FAB3
:1003280007F405FA01F31C43FD404FEA1C4900FAA3
:1003380001F3B5FBF9F8200C1FFA8CFE09FB1855E0
:1003480040EA054508FB0EF0A84202FA01F20BD973
:100358001CEB050508F1FF3A80F08880A84240F2BE
:100368008580A8F1020865442D1AA4B2B5FBF9F0FE
:1003780009FB105544EA054500FB0EFEAE4508D9B9
:100388001CEB050500F1FF346CD2AE456AD9023882
:10039800654440EA0840A0FB0294A5EB0E05A5427F
:1003A800C846A64656D353D05EB1B3EB080265EBF8
:1003B8000E0505FA07F722FA01F3CD401F43C6E9F7
:1003C80000750021BDE8F087C2F1200320FA03F18F
:1003D8000CFA02FC25FA03F395400D434FEA1C473B
:1003E8001FFA8CFEB3FBF7F107FB11302B0C43EA25
:1003F800004301FB0EF0984204FA02F408D91CEB02
:10040800030301F1FF382FD298422DD902396344F2
:100418001B1AADB2B3FBF7F007FB103345EA0345EF
:1004280000FB0EF3AB4208D91CEB050500F1FF38C1
:1004380016D2AB4214D902386544ED1A40EA01419C
:1004480038E73146304607E78646E5E61846FAE6D5
:100458004B45A9D2B9EB020864EB0C0E0138A3E7AF
:100468004046EAE7204694E74146D1E7D0467BE795
:10047800023B654432E7084609E76444023842E72C
:10048800704700BF80B485B000AF78604FF0B043CC
:100498009A6C4FF0B0417B6813438B644FF0B043C4
:1004A8009A6C7B681340FB60FB6800BF1437BD463D
:1004B80080BC704780B500AF0420FFF7E3FF012040
:1004C800FFF7E0FF002202210B2001F066FA0B2063
:1004D80001F07DFA00BF80BD80B485B000AF7860C0
:1004E8004FF0B043DA6C4FF0B0417B681343CB64F4
:1004F8004FF0B043DA6C7B681340FB60FB6800BFC9
:100508001437BD4680BC704780B586B000AF3B1D30
:1005180000221A605A609A60DA601A610120FFF7B7
:10052800DBFF0420FFF7D8FF0220FFF7D5FF0022EA
:100538004FF48361214802F07FF8012220211F48EF
:1005480002F07AF8002231214FF0904002F074F85E
:100558004FF487637B600123BB600023FB600323A8
:100568003B613B1D1946154801F038FE31237B607D
:100578000123BB600023FB6003233B613B1D19463D
:100588004FF0904001F02AFE4FF400537B604FF487
:100598000413BB600123FB603B1D1946074801F0AB
:1005A8001DFE00220021292001F0F7F9292001F081
:1005B8000EFA00BF1837BD4680BD00BF00040048D2
:1005C80080B483B000AF78604FF0B043D3F8903078
:1005D80023F018024FF0B0417B681343C1F8903004
:1005E80000BF0C37BD4680BC704780B500AF01F036
:1005F800ADF800F007F8FFF787FF09F08CFF09F066
:1006080092FFFCE780B59AB000AF07F120034822BB
:10061800002118460BF03AFD07F1080300221A6082
:100628005A609A60DA601A615A6102F03FF8002055
:10063800FFF7C6FF1F4B1B6823F4C0631D4A43F432
:10064800007313601B4B1B6803F4C0637B607B68FB
:1006580024233B628123FB6201233B6400237B64E8
:10066800B023BB640023FB6407F12003184602F0A3
:1006780069FB0346002B01D000F01EF84F23BB6036
:100688000023FB6000233B6100237B610023BB61E7
:100698000023FB6107F108030221184602F0EEFE71
:1006A8000346002B01D000F007F800BF6837BD46AD
:1006B80080BD00BF0004005880B400AF72B600BF10
:1006C800FEE780B400AF4FF0B043D3F890304FF05E
:1006D800B04243F40043C2F8903000BFBD4680BC2E
:1006E800704780B485B000AF78604FF0B0439A6D22
:1006F8004FF0B0417B6813438B654FF0B0439A6D60
:100708007B681340FB60FB6800BF1437BD4680BCA4
:100718007047000080B58CB000AF3B1D2C22002133
:1007280018460BF0B3FC224B224A1A60204B1F22BA
:100738009A601F4B00221A611D4B00225A611C4B04
:1007480000229A611A4B4FF08042DA61184B00225E
:100758001A62174B4FF480725A62154803F04AFB2D
:100768000346002B01D0FFF7A7FF114803F038FE1E
:100778000346002B01D0FFF79FFF00233B620023B5
:10078800BB600023BB614FF00053FB614FF48073E3
:10079800FB623B1D00221946054803F0A5FB0346F2
:1007A800002B01D0FFF788FF00BF3037BD4680BD62
:1007B800380000200028004080B590B000AF786075
:1007C80007F108033822002118460BF05FFC7B680C
:1007D8001B68164A934225D14FF48033BB604FF40F
:1007E8008073FB6307F10803184603F0E9F9034631
:1007F800002B01D0FFF760FFFFF763FF4FF4806025
:10080800FFF76FFF00220021022001F0C6F8022046
:1008180001F0DDF8002200212A2001F0BEF82A208C
:1008280001F0D5F800BF4037BD4680BD0028004024
:1008380080B400AF034B0122C3F8882000BFBD4637
:1008480080BC70470004005880B400AF00BFBD46AC
:1008580080BC704780B400AF00BFBD4680BC704705
:1008680080B500AF00F092FFFFF7E2FF012001F032
:10087800AFFF00BF80BD80B500AF00F095FF00F06E
:1008880015FE00BF80BD80B500AF00F07FFF0121DD
:10089800002001F019FF00BF80BD80B500AF00F057
:1008A80083FF00BF80BD80B400AF00BFBD4680BCE1
:1008B800704780B400AFFEE780B400AFFEE780B4B5
:1008C80000AFFEE780B400AFFEE780B400AFFEE7FC
:1008D80080B400AF00BFBD4680BC704780B400AF95
:1008E80000BFBD4680BC704780B400AF00BFBD46A6
:1008F80080BC704780B400AF00BFBD4680BC704765
:1009080080B500AF024803F0A7FD00BF80BD00BF5F
:100918003800002080B500AF024801F0EFFA00BFB0
:1009280080BD00BF1401002080B500AF024804F06C
:10093800F3FB00BF80BD00BF8400002080B500AF7E
:100948004FF4005001F090FE00BF80BD80B500AFAD
:10095800024803F031FC00BF80BD00BF3800002012
:1009680080B500AF024804F0DFF800BF80BD00BFCB
:100978007000002080B485B000AF78604FF0B043BD
:100988005A6E4FF0B0417B6813434B664FF0B0434B
:100998005A6E7B681340FB60FB6800BF1437BD4686
:1009A80080BC704780B500AF064B08221A60054826
:1009B80003F03EFE0346002B01D0FFF77DFE00BF8B
:1009C80080BD00BF7000002080B582B000AF7860A5
:1009D8000120FFF7CFFF00220021322000F0DDFFC9
:1009E800322000F0F4FF00BF0837BD4680BD80B458
:1009F80083B000AF78604FF0B0439B6823F40042A7
:100A08004FF0B0417B6813438B6000BF0C37BD4685
:100A180080BC704780B500AF0020FFF7E8FF0AF000
:100A2800DFFD0C4B01221A7000F0BAF80BF068F8E1
:100A380009480BF001F902200BF00CF90AF084F8D0
:100A4800012102200AF0C0F8012102200AF08CF8E6
:100A580000BF80BD7C000020710A000880B500AF8F
:100A68000AF0E2F800BF80BD80B586B002AF7860BA
:100A7800396007F1080318460AF080F9BB68B7F92E
:100A88000C200092074A1021786800F01DF8786859
:100A9800FFF76EFB03469AB23B681A8000BF103717
:100AA800BD4680BDE4C0000880B500AF0121042028
:100AB8000AF05AF800BF80BD80B500AF00210420BD
:100AC8000AF052F800BF80BD0CB480B584B000AF06
:100AD8007860396007F11C03FB603968FB68BA6904
:100AE80078680AF097FA00BF1037BD46BDE8804025
:100AF80002B0704780B483B000AF78600023184616
:100B08000C37BD4680BC704780B582B000AF00236B
:100B18007B60064B1B78002B02D000F063F97860ED
:100B28007B6818460837BD4680BD00BF7C000020A2
:100B380080B582B000AF78607B68184600F0D9F9BC
:100B480000BF0837BD4680BD80B485B000AF78606F
:100B58004FF0B043DA6C4FF0B0417B681343CB647D
:100B68004FF0B043DA6C7B681340FB60FB6800BF52
:100B78001437BD4680BC704780B483B000AF78603E
:100B8800064BD3F8902005497B681343C1F8903091
:100B980000BF0C37BD4680BC704700BF0008005836
:100BA80080B586B000AF4FF48040FFF7E5FF00F056
:100BB80009FE00F00DFE00F011FE3B1D00221A6038
:100BC8005A609A60DA601A610123BB600023FB60F7
:100BD80003233B610120FFF7B7FF0220FFF7B4FFB3
:100BE8000220FFF7B1FF0220FFF7AEFF01237B6071
:100BF8003B1D19464FF0904001F0F0FA08237B6046
:100C08003B1D1946154801F0E9FA10237B603B1D8E
:100C18001946124801F0E2FA4FF480637B603B1DED
:100C280019460E4801F0DAFA002201214FF09040EF
:100C380001F002FD00220821084801F0FDFC002215
:100C48001021064801F0F8FC00224FF480610348A7
:100C580001F0F2FC00BF1837BD4680BD0004004813
:100C680080B400AF00BFBD4680BC704780B483B07D
:100C780000AF78607B689B6818460C37BD4680BC1F
:100C88007047000080B582B000AF0023FB71144BA1
:100C98001B7883F00103DBB2002B1BD0114B4FF004
:100CA800FF321A63FFF736FD00F056F84FF48071F3
:100CB8000C4803F025FA0B4B4FF0FF321A63094832
:100CC80003F05CFB002000F0D3F900F05FF8044B60
:100CD80001221A70FB7918460837BD4680BD00BF4F
:100CE8007D0000203800002080B58EB000AF78600D
:100CF800002387F8373007F108032C220021184613
:100D08000BF0C4F900F028F8114B1B687A681344FB
:100D18007B6000237B627B68DB43FB600023FB6115
:100D28004FF000533B624FF480733B6307F10803B5
:100D380001221946074803F0D7F80346002B01D0D3
:100D4800FFF7BAFC97F8373018463837BD4680BDEC
:100D5800800000203800002080B582B000AF00235A
:100D6800FB71084B0122DA654FF48071064803F0E5
:100D7800C7F9054B4FF0FF321A63FB79184608375D
:100D8800BD4680BD002800403800002080B500AF77
:100D980000F08EF90346034A1360024B1B6818469D
:100DA80080BD00BF8000002080B400AF024B1B68EC
:100DB8001846BD4680BC70478000002080B582B0D0
:100DC80000AF00237B6000F073F90246044B1B68F8
:100DD800D31A7B607B6818460837BD4680BD00BFC4
:100DE8008000002080B582B000AF00237B60064BF6
:100DF8001B78002B02D000F05BF978607B681846FE
:100E08000837BD4680BD00BF7D00002080B483B098
:100E180000AF00237B6003237B607B6818460C3798
:100E2800BD4680BC7047B0B584B000AF7860002183
:100E3800F960796800200A460346950D94024FF43C
:100E48007A724FF0000320462946FFF799F90246C7
:100E58000B461346FB60FB6818461037BD46B0BD0D
:100E68002DE9B00F85B000AF78600021F96079688E
:100E780000200C460546204629464FF0000A4FF050
:100E8800000B4FEA411B4BEAD06B4FEA401A504621
:100E98005946021B61EB05034FF000004FF00001BB
:100EA800990041EA9271900002460B4612EB040841
:100EB80043EB05094FF000024FF000034FEAC90366
:100EC80043EA58734FEAC802904699464046494655
:100ED8004FF000024FF00003820A42EA81528B0A67
:100EE8001346FB60FB6818461437BD46BDE8B00FD3
:100EF800704780B584B000AF78607868FFF793FFDB
:100F0800F86000F0D5F8B86000E000BF00F0D0F855
:100F18000246BB68D31AFA689A42F6D800BF00BFE7
:100F28001037BD4680BD80B582B000AF78600AF04A
:100F3800A5FC00BF0837BD4680BD80B584B000AFB2
:100F4800786000F0A5F8F860FB680133184600F0F7
:100F58008FF800BF1037BD4680BD2DE9B04F8CB06B
:100F680000AF78610023FB6200F0A2F8B86200F0DD
:100F78008FF878627B6A0022BB60FA604FF000024B
:100F88004FF00003B9680B000022B96A00200C4634
:100F9800054612EB040843EB0509C7E90689D7E9BA
:100FA80006014FF000024FF00003820A42EA815224
:100FB8008B0A1346FB62BB6900223B607A603B6880
:100FC800C3F3090A4FF0000BC7E906ABBB69184623
:100FD800FFF746FF03469AB27B691A80FB6A1846F8
:100FE8003037BD46BDE8B08F80B582B000AF7860BD
:100FF8007A680021034803F053FA00BF0837BD465A
:1010080080BD00BF3800002080B582B000AF786096
:101018007A680121034803F043FA00BF0837BD4648
:1010280080BD00BF3800002080B582B000AF00232B
:101038007B600021044803F04BFA78607B6818460F
:101048000837BD4680BD00BF3800002080B582B09B
:1010580000AF00237B600121044803F039FA78606F
:101068007B6818460837BD4680BD00BF38000020A1
:1010780080B582B000AF78607A680221034803F037
:101088000FFA00BF0837BD4680BD00BF38000020FA
:1010980080B582B000AF0221044803F019FA7860E5
:1010A8007B6818460837BD4680BD00BF3800002061
:1010B80080B582B000AF0B48FFF7D8FD786003E039
:1010C8000848FFF7D3FD78600648FFF7CFFD0246D2
:1010D8007B689342F4D17B68DB4318460837BD46EA
:1010E80080BD00BF0028004080B485B000AF7860A4
:1010F8004FF0B043DA6C4FF0B0417B681343CB64D8
:101108004FF0B043DA6C7B681340FB60FB6800BFAC
:101118001437BD4680BC704780B485B000AF786096
:101128004FF0B0431A6E4FF0B0417B6813430B6623
:101138004FF0B0431A6E7B681340FB60FB6800BF3A
:101148001437BD4680BC704780B483B000AF786068
:101158004FF0B0431A6E7B68DB434FF0B041134049
:101168000B6600BF0C37BD4680BC704780B500AF2A
:10117800224B234A1A60214B4FF4E1325A601F4B2D
:1011880000229A601D4B0022DA601C4B00221A6173
:101198001A4B0C225A61194B00229A61174B0022F4
:1011A800DA61164B00221A62144B00225A62134B62
:1011B80000229A62114803F076FE0346002B01D004
:1011C800FFF77AFA00210D4805F0EDFE0346002BE3
:1011D80001D0FFF771FA0021084805F022FF034605
:1011E800002B01D0FFF768FA044805F0A1FE03467A
:1011F800002B01D0FFF760FA00BF80BD84000020FB
:101208000038014080B596B000AF786007F144031C
:1012180000221A605A609A60DA601A6107F10C03BA
:101228003822002118460AF031FF7B681B682F4AD4
:10123800934256D10123FB604FF440333B6107F1E1
:101248000C03184602F0BCFC0346002B01D0FFF744
:1012580033FA4FF48040FFF75FFF0220FFF744FFA7
:10126800C0237B640223BB640023FB6403233B6528
:1012780007237B6507F1440319461D4800F0AEFFBC
:101288001C4B1D4A1A601B4B12225A60194B102224
:101298009A60184B0022DA60164B80221A61154BAF
:1012A80000225A61134B00229A61124B0022DA6124
:1012B800104B00221A620F4800F0A6FB0346002BD1
:1012C80001D0FFF7F9F97B680A4A9A67094A7B68EF
:1012D800936200220221242000F05FFB242000F00A
:1012E80076FB00BF5837BD4680BD00BF00380140BF
:1012F80000040048140100200800024080B582B0B4
:1013080000AF78607B681B680B4A93420FD14FF49B
:101318008040FFF719FFC021084801F0BFF87B683B
:101328009B6F184600F018FC242000F05EFB00BFFD
:101338000837BD4680BD00BF0038014000040048A2
:1013480080B483B000AF78604FF0B0431A6C4FF0B0
:10135800B0417B6813430B6400BF0C37BD4680BCAB
:10136800704780B483B000AF78604FF0B0431A6C18
:101378007B68DB434FF0B04113400B6400BF0C3770
:10138800BD4680BC7047000080B483B000AF786071
:10139800064BD3F8802005497B681343C1F8803099
:1013A80000BF0C37BD4680BC704700BF000800581E
:1013B80080B582B000AF7860074A7B681360FFF79A
:1013C80079F8FFF7D3FE4FF08060FFF7DDFF0023C9
:1013D80018460837BD4680BD7801002080B500AFAB
:1013E8004FF48040FFF7ACFF4FF48040FFF7B9FFA0
:1013F8000448FFF783FF0F2000F0F7FA0023184690
:1014080080BD00BF8400002080B582B000AF786046
:101418000B467B807B881A467968044803F0EAFD0E
:10142800002318460837BD4680BD00BF8400002051
:1014380080B584B000AF7860194A7B6813604FF4B8
:101448000013BB6007F1080393E80600154805F090
:10145800E2FC00BF134B1B68DB6903F48033B3F570
:10146800803FF7D000BF0F4B1B68DB6903F4800394
:10147800B3F5800FF7D10B4B1B689A68094B1B68B3
:1014880042F480029A60074805F020FD01220649CF
:10149800044803F059FD002318461037BD4680BDA7
:1014A8007C010020840000207401002080B500AF7A
:1014B800084803F0F8FC0346002B01D0FFF7FCF8BE
:1014C800054800F0A1FA0346002B01D0FFF7F4F815
:1014D80000BF80BD840000201401002080B582B0C8
:1014E80000AF78607B681B68054A934203D1054BBF
:1014F8001B680020984700BF0837BD4680BD00BF65
:10150800003801407801002080B582B000AF7860D3
:101518007B681B680D4A934213D10D4B1B68002B47
:101528000AD07B68D3F88C30002B05D1084B1B6898
:10153800002201210748984701220649786803F0EC
:1015480003FD00BF0837BD4680BD00BF003801401D
:101558007C010020740100200D488546FFF780FBC0
:101568000C480D490D4A002302E0D458C4500433F6
:10157800C4188C42F9D30A4A0A4C002301E01360CC
:101588000432A242FBD30AF04FFDFFF72EF8FEE724
:1015980000000120000000201C00002038C60008C0
:1015A8001C00002088080020FEE780B586B000AF48
:1015B8003B1D00221A605A609A60DA601A61102393
:1015C8007B600123BB600023FB6003233B613B1D61
:1015D80019464FF0904000F001FE20237B603B1D30
:1015E80019464FF0904000F0F9FD002220214FF0FD
:1015F800904001F021F8002210214FF0904001F0B6
:101608001BF8002318461837BD4680BD80B582B048
:1016180000AF0346FB71FB79032B3FD801A252F8B8
:1016280023F000BF3D160008571600087116000881
:101638008B160008002210214FF0904000F0FCFFAC
:10164800002220214FF0904000F0F6FF27E0012211
:1016580010214FF0904000F0EFFF002220214FF0C2
:10166800904000F0E9FF1AE0012210214FF090406D
:1016780000F0E2FF012220214FF0904000F0DCFF53
:101688000DE0002210214FF0904000F0D5FF01221C
:1016980020214FF0904000F0CFFF00E000BF002372
:1016A80018460837BD4680BD80B400AF02231846EF
:1016B800BD4680BC704780B400AF01231846BD46C4
:1016C80080BC704780B400AF01231846BD4680BC7B
:1016D800704780B485B000AF0346FB71FB79002BDF
:1016E80002D10F23FB6001E01623FB60FB6818465C
:1016F8001437BD4680BC704780B400AF044B5B68AC
:10170800034A43F00103536000BFBD4680BC7047E5
:10171800002004E080B400AF044B5B68034A43F048
:101728000203536000BFBD4680BC7047002004E040
:1017380080B400AF044B5B68034A43F00403536072
:1017480000BFBD4680BC7047002004E080B582B071
:1017580000AF0023FB71032000F014F902F052F8E7
:101768000346094A13600F20FFF7C4F90346002B0C
:1017780002D00123FB7101E0FFF795F8FB791846C9
:101788000837BD4680BD00BF0000002080B400AF10
:10179800044B1B68034A23F00203136000BFBD46D5
:1017A80080BC704710E000E080B400AF044B1B68B9
:1017B800034A43F00203136000BFBD4680BC704774
:1017C80010E000E080B500AFFFF796FF00BF80BDD6
:1017D80080B500AFFFF79EFF00BF80BD80B500AFAA
:1017E800FFF7A6FF00BF80BD80B485B000AF78606A
:1017F8007B6803F00703FB600C4BDB68BB60BA68CF
:101808004FF6FF031340BB60FB681A02BB68134323
:1018180043F0BF6343F40033BB60044ABB68D36042
:1018280000BF1437BD4680BC704700BF00ED00E024
:1018380080B400AF044BDB681B0A03F007031846AB
:10184800BD4680BC704700BF00ED00E080B483B0A7
:1018580000AF0346FB7197F90730002B0BDBFB79D0
:1018680003F01F02064997F907305B09012000FAC7
:1018780002F241F8232000BF0C37BD4680BC7047F8
:1018880000E100E080B483B000AF0346FB7197F934
:101898000730002B12DBFB7903F01F020A4997F986
:1018A80007305B09012000FA02F2203341F82320B7
:1018B800BFF34F8F00BFBFF36F8F00BF00BF0C3760
:1018C800BD4680BC704700BF00E100E080B483B033
:1018D80000AF03463960FB7197F90730002B0ADB2C
:1018E8003B68DAB20C4997F907301201D2B20B44BF
:1018F80083F800230AE03B68DAB20849FB7903F071
:101908000F03043B1201D2B20B441A7600BF0C3706
:10191800BD4680BC704700BF00E100E000ED00E07C
:1019280080B489B000AFF860B9607A60FB6803F0F2
:101938000703FB61FB69C3F10703042B28BF0423DA
:10194800BB61FB690433062B02D9FB69033B00E04A
:1019580000237B614FF0FF32BB6902FA03F3DA43DD
:10196800BB681A407B699A404FF0FF317B6901FAE6
:1019780003F3D9437B680B40134318462437BD460D
:1019880080BC704780B582B000AF78607868FFF798
:101998002BFF00BF0837BD4680BD80B586B000AFBD
:1019A8000346B9607A60FB73FFF742FF78617A6893
:1019B800B9687869FFF7B4FF024697F90F30114606
:1019C8001846FFF783FF00BF1837BD4680BD80B5B6
:1019D80082B000AF0346FB7197F907301846FFF74E
:1019E80035FF00BF0837BD4680BD80B582B000AF67
:1019F8000346FB7197F907301846FFF743FF00BF0E
:101A08000837BD4680BD000080B582B000AF786061
:101A18007B68002B01D101238EE07B681B681A4686
:101A2800474B9A420FD87B681B681A46454B1344AC
:101A3800454AA2FB03231B099A007B685A647B680A
:101A4800424A1A640EE07B681B681A46404B1344EE
:101A58003D4AA2FB03231B099A007B685A647B68F2
:101A68003C4A1A647B68022283F825207B681B683D
:101A78001B687A68126823F4FF4323F0700313602D
:101A88007B681B6819687B689A687B68DB681A43FF
:101A98007B681B691A437B685B691A437B689B698F
:101AA8001A437B68DB691A437B681B6A1A437B68A5
:101AB8001B680A431A60786800F024FB7B689B68FF
:101AC800B3F5804F02D17B6800225A607B685A6860
:101AD8007B689B6C02F07F021A607B68DB6C7A681B
:101AE800126D5A607B685B68002B10D07B685B685E
:101AF800042B0CD8786800F04DFB7B685B6D0022E6
:101B08001A607B689B6D7A68D26D5A6008E07B68C2
:101B180000225A657B6800229A657B680022DA6594
:101B28007B680022DA637B68012283F825207B68C2
:101B3800002283F82420002318460837BD4680BDBC
:101B480007040240F8FFFDBFCDCCCCCC000002401A
:101B5800F8FBFDBF0004024080B582B000AF78609A
:101B68007B68002B01D101237BE07B681B681A6826
:101B78007B681B6822F001021A607B681B681A46A2
:101B88003A4B9A420FD87B681B681A46384B134465
:101B9800384AA2FB03231B099A007B685A647B68B6
:101BA800354A1A640EE07B681B681A46334B1344A7
:101BB800304AA2FB03231B099A007B685A647B689E
:101BC8002F4A1A647B681B6800221A607B685B6C6A
:101BD80003F01C027B681B6C012101FA02F25A60B7
:101BE800786800F08FFA7B689B6C00221A607B682B
:101BF800DB6C7A68126D5A607B685B68002B0FD0CB
:101C08007B685B68042B0BD8786800F0C3FA7B68A4
:101C18005B6D00221A607B689B6D7A68D26D5A6092
:101C28007B6800225A657B6800229A657B680022DF
:101C3800DA657B680022DA627B6800221A637B68B7
:101C480000225A637B6800229A637B680022DA6369
:101C58007B68002283F825207B68002283F82420F3
:101C6800002318460837BD4680BD00BF0704024060
:101C7800F8FFFDBFCDCCCCCC00000240F8FBFDBF87
:101C88000004024080B586B000AFF860B9607A60A1
:101C98003B600023FB75FB6893F82430012B01D1CE
:101CA800022369E0FB68012283F82420FB6893F88B
:101CB8002530DBB2012B55D1FB68022283F82520A1
:101CC800FB680022DA63FB681B681A68FB681B68FC
:101CD80022F001021A603B687A68B968F86800F077
:101CE800D3F9FB681B6B002B08D0FB681B681A68CC
:101CF800FB681B6842F00E021A600FE0FB681B6865
:101D08001A68FB681B6822F004021A60FB681B68EB
:101D18001A68FB681B6842F00A021A60FB689B6C31
:101D28001B6803F48033002B07D0FB689B6C1A6890
:101D3800FB689B6C42F480721A60FB685B6D002B39
:101D480007D0FB685B6D1A68FB685B6D42F48072B4
:101D58001A60FB681B681A68FB681B6842F001027E
:101D68001A6008E0FB688022DA63FB68002283F8C7
:101D780024200123FB75FB7D18461837BD4680BD1E
:101D880080B483B000AF78607B68002B01D1012359
:101D98004FE07B6893F82530DBB2022B08D07B68D4
:101DA8000422DA637B68002283F82420012340E0C0
:101DB8007B681B681A687B681B6822F00E021A6031
:101DC8007B689B6C1A687B689B6C22F480721A6033
:101DD8007B681B681A687B681B6822F001021A601E
:101DE8007B685B6C03F01C027B681B6C012101FAA9
:101DF80002F25A607B68DB6C7A68126D5A607B6805
:101E08005B6D002B0CD07B685B6D1A687B685B6D23
:101E180022F480721A607B689B6D7A68D26D5A6072
:101E28007B68012283F825207B68002283F8242020
:101E3800002318460C37BD4680BC704780B584B077
:101E480000AF78600023FB737B6893F82530DBB222
:101E5800022B05D07B680422DA630123FB7347E079
:101E68007B681B681A687B681B6822F00E021A6080
:101E78007B681B681A687B681B6822F001021A607D
:101E88007B689B6C1A687B689B6C22F480721A6072
:101E98007B685B6C03F01C027B681B6C012101FAF8
:101EA80002F25A607B68DB6C7A68126D5A607B6854
:101EB8005B6D002B0CD07B685B6D1A687B685B6D73
:101EC80022F480721A607B689B6D7A68D26D5A60C2
:101ED8007B68012283F825207B68002283F8242070
:101EE8007B689B6B002B03D07B689B6B786898475B
:101EF800FB7B18461037BD4680BD000080B584B016
:101F080000AF78607B681B6C1B68FB607B681B6894
:101F18001B68BB607B685B6C03F01C0304229A405F
:101F2800FB681340002B27D0BB6803F00403002B89
:101F380022D07B681B681B6803F02003002B07D1A5
:101F48007B681B681A687B681B6822F004021A60A9
:101F58007B685B6C03F01C027B681B6C042101FA34
:101F680002F25A607B681B6B002B00F081807B6853
:101F78001B6B786898477BE07B685B6C03F01C03FD
:101F880002229A40FB681340002B3DD0BB6803F047
:101F98000203002B38D07B681B681B6803F0200302
:101FA800002B0BD17B681B681A687B681B6822F0C2
:101FB8000A021A607B68012283F825207B681B6867
:101FC8001A462E4B9A4209D97B685B6C03F01C03B6
:101FD8002B4A022101FA03F3536008E07B685B6C2B
:101FE80003F01C03274A022101FA03F353607B68BC
:101FF800002283F824207B68DB6A002B38D07B68BA
:10200800DB6A7868984733E07B685B6C03F01C03F5
:1020180008229A40FB681340002B2AD0BB6803F0C3
:102028000803002B25D07B681B681A687B681B682F
:1020380022F00E021A607B685B6C03F01C027B685E
:102048001B6C012101FA02F25A607B680122DA63F3
:102058007B68012283F825207B68002283F82420EE
:102068007B685B6B002B04D07B685B6B7868984758
:1020780000BF00BF1037BD4680BD00BF80000240D2
:10208800000402400000024080B485B000AFF86050
:10209800B9607A603B60FB68DB6CFA68126D5A6065
:1020A800FB685B6D002B04D0FB689B6DFA68D26DF2
:1020B8005A60FB685B6C03F01C02FB681B6C012117
:1020C80001FA02F25A60FB681B683A685A60FB68BA
:1020D8009B68102B08D1FB681B687A689A60FB68BC
:1020E8001B68BA68DA6007E0FB681B68BA689A6020
:1020F800FB681B687A68DA6000BF1437BD4680BC8D
:102108007047000080B485B000AF78607B681B68BA
:102118001A461C4B9A4213D87B685B6C9B089B0041
:1021280003F1804303F502337A6893647B681B6884
:10213800DBB2083B144AA2FB03231B09FB6011E036
:102148007B685B6C9B089A00104B13447A68936415
:102158007B681B68DBB2083B0B4AA2FB03231B0905
:102168000733FB607B680A4ADA64FB6803F01F03E5
:1021780001229A407B681A6500BF1437BD4680BCAF
:10218800704700BF07040240CDCCCCCC1C080240ED
:102198008008024080B485B000AF78607B685B68D7
:1021A80003F07F03FB60FA680A4B13449B001A464E
:1021B8007B685A657B68084A9A65FB68013B03F0AF
:1021C800030301229A407B68DA6500BF1437BD46D5
:1021D80080BC70473F8200104009024080B487B03D
:1021E80000AF7860396000237B6140E13B681A6882
:1021F80001217B6901FA03F31340FB60FB68002BA4
:1022080000F032813B685B6803F00303012B05D0C3
:102218003B685B6803F00303022B30D17B689B6843
:102228003B617B695B00032202FA03F3DB433A69F3
:1022380013403B613B68DA687B695B0002FA03F391
:102248003A6913433B617B683A699A607B685B68CB
:102258003B6101227B6902FA03F3DB433A691340CD
:102268003B613B685B681B0903F001027B6902FA6A
:1022780003F33A6913433B617B683A695A603B68E8
:102288005B6803F00303032B17D07B68DB683B61B3
:102298007B695B00032202FA03F3DB433A691340CC
:1022A8003B613B689A687B695B0002FA03F33A6911
:1022B80013433B617B683A69DA603B685B6803F00B
:1022C8000303022B23D17B69DA087B68083253F8B1
:1022D80022303B617B6903F007039B000F2202FA5F
:1022E80003F3DB433A6913403B613B681A697B6936
:1022F80003F007039B0002FA03F33A6913433B61B7
:102308007B69DA087B680832396943F822107B68F0
:102318001B683B617B695B00032202FA03F3DB4322
:102328003A6913403B613B685B6803F003027B69D1
:102338005B0002FA03F33A6913433B617B683A692D
:102348001A603B685B6803F44033002B00F08C8014
:102358004E4A7B699B08023352F823303B617B6904
:1023680003F003039B00072202FA03F3DB433A69F5
:1023780013403B617B68B3F1904F0DD07B68444AB2
:10238800934207D07B68434A934201D1022304E079
:10239800072302E0012300E000237A6902F0030228
:1023A800920093403A6913433B6138497B699B0823
:1023B80002333A6941F82320374B1B683B61FB68BD
:1023C800DB433A6913403B613B685B6803F4801365
:1023D800002B03D03A69FB6813433B612E4A3B69E3
:1023E80013602D4B5B683B61FB68DB433A69134024
:1023F8003B613B685B6803F40013002B03D03A6928
:10240800FB6813433B61244A3B695360224BD3F872
:1024180080303B61FB68DB433A6913403B613B68B2
:102428005B6803F48033002B03D03A69FB681343DD
:102438003B61194A3B69C2F88030174BD3F88430A6
:102448003B61FB68DB433A6913403B613B685B686F
:1024580003F40033002B03D03A69FB6813433B6154
:102468000D4A3B69C2F884307B6901337B613B6864
:102478001A687B6922FA03F3002B7FF4B7AE00BF1A
:1024880000BF1C37BD4680BC704700BF000001403C
:1024980000040048000800480008005880B487B0CD
:1024A80000AF7860396000237B61AFE001227B696F
:1024B80002FA03F33A6813403B613B69002B00F0D2
:1024C800A280594A7B699B08023352F82330FB608B
:1024D8007B6903F003039B00072202FA03F3FA68FF
:1024E8001340FB607B68B3F1904F0DD07B684F4A77
:1024F800934207D07B684E4A934201D1022304E0FD
:10250800072302E0012300E000237A6902F00302B6
:1025180092009340FA689A4236D1464BD3F880200D
:102528003B69DB4343491340C1F88030414BD3F842
:1025380084203B69DB433F491340C1F884303D4B5D
:102548001A683B69DB433B4913400B60394B5A68B7
:102558003B69DB43374913404B607B6903F0030356
:102568009B00072202FA03F3FB602F4A7B699B0852
:10257800023352F82310FB68DA432B487B699B0827
:102588000A40023340F823207B681A687B695B00A5
:10259800032101FA03F31A437B681A607B69DA089E
:1025A8007B68083253F822107B6903F007039B000D
:1025B8000F2202FA03F3DB437A69D20819407B68D9
:1025C800083243F822107B689A687B695B00032114
:1025D80001FA03F3DB431A407B689A607B685A6808
:1025E80001217B6901FA03F3DB431A407B685A60D7
:1025F8007B68DA687B695B00032101FA03F3DB433C
:102608001A407B68DA607B6901337B613A687B69D1
:1026180022FA03F3002B7FF449AF00BF00BF1C3739
:10262800BD4680BC704700BF000001400004004860
:10263800000800480008005880B483B000AF7860F4
:102648000B467B8013467B707B78002B03D07A88FF
:102658007B689A6102E07A887B689A6200BF0C37CF
:10266800BD4680BC7047000080B582B000AF03460D
:10267800FB80084BDA68FB881340002B06D0054A1C
:10268800FB88D360FB88184600F006F800BF0837BF
:10269800BD4680BD0008005880B483B000AF034633
:1026A800FB8000BF0C37BD4680BC704780B400AFCC
:1026B800044B1B68034A43F48073136000BFBD4694
:1026C80080BC70470004005880B582B000AF7860C5
:1026D8000B46FB707B68002B0CD1134B5B6903F432
:1026E8000073B3F5007F0DD100F03CF80346002BD2
:1026F80008D015E00C4B5B6903F40073002B01D183
:1027080000F022F8094B1B69084A23F004031361FF
:10271800FB78012B01D130BF02E040BF20BF20BFB2
:102728000837BD4680BD00BF0004005800ED00E03A
:1027380080B400AF034B1B6803F4C0631846BD4662
:1027480080BC70470004005880B400AF044B1B687D
:10275800034A43F48043136000BFBD4680BC704702
:102768000004005880B483B000AF164B1B68154AAC
:1027780023F480431360144B1B68322202FB03F3DB
:10278800124AA2FB03239B0C7B6002E07B68013B9F
:102798007B600C4B5B6903F40073B3F5007F02D1D7
:1027A8007B68002BF2D1074B5B6903F40073B3F528
:1027B800007F01D1032300E0002318460C37BD46F3
:1027C80080BC7047000400580000002083DE1B43D3
:1027D80080B483B000AF0346FB71104B1B6823F035
:1027E80007030E4A43F0020313600D4B1B690C4AA2
:1027F80043F004031361FB79012B01D130BF02E0E0
:1028080040BF20BF20BF064B1B69054A23F00403C5
:10281800136100BF0C37BD4680BC704700040058E8
:1028280000ED00E080B400AF064B1B6803F4807332
:10283800B3F5807F01D1012300E000231846BD468F
:1028480080BC70470004005880B400AF4FF0B0431C
:102858001B684FF0B04243F40013136000BFBD463D
:1028680080BC704780B400AF4FF0B0431B684FF096
:10287800B04223F40013136000BFBD4680BC70470C
:1028880080B400AF4FF0B0431B6803F48013B3F576
:10289800801F01D1012300E000231846BD4680BCFB
:1028A800704780B400AF4FF0B0431B684FF0B042A0
:1028B80043F48033136000BFBD4680BC704780B4CA
:1028C80000AF4FF0B0431B684FF0B04223F48033A1
:1028D800136000BFBD4680BC704780B400AF4FF0A6
:1028E800B0431B6803F40033B3F5003F01D1012363
:1028F80000E000231846BD4680BC704780B400AF96
:102908004FF0B0431B684FF0B04243F4807313603C
:1029180000BFBD4680BC704780B400AF4FF0B043E5
:102928001B684FF0B04223F48073136000BFBD46AC
:1029380080BC704780B400AF4FF0B0431B6803F40D
:102948008063B3F5806F01D1012300E000231846AE
:10295800BD4680BC704780B483B000AF78604FF04C
:10296800B0435B6823F0FE427B681B064FF0B04122
:1029780013434B6000BF0C37BD4680BC704780B422
:1029880000AF4FF0B043D3F8903003F00203022BAE
:1029980001D1012300E000231846BD4680BC7047E2
:1029A80080B400AF4FF0B043D3F894304FF0B0424A
:1029B80043F00103C2F8943000BFBD4680BC7047A5
:1029C80080B400AF4FF0B043D3F894304FF0B0422A
:1029D80023F00103C2F8943000BFBD4680BC7047A5
:1029E80080B400AF4FF0B043D3F8943003F0020343
:1029F800022B01D1012300E000231846BD4680BC0C
:102A0800704780B400AF4FF0B0431B684FF0B0423E
:102A180043F00103136000BFBD4680BC704780B41B
:102A280000AF4FF0B0431B684FF0B04223F00103F2
:102A3800136000BFBD4680BC704780B400AF4FF044
:102A4800B0431B6803F00203022B01D1012300E00D
:102A580000231846BD4680BC704780B400AF4FF0D5
:102A6800B0431B6803F00803082B01D1012300E0E1
:102A780000231846BD4680BC704780B400AF4FF0B5
:102A8800B0431B6803F0F0031846BD4680BC70478E
:102A980080B400AF4FF0B043D3F8943003F47063C0
:102AA8001846BD4680BC704780B483B000AF7860DC
:102AB8004FF0B0435B6823F47F427B681B024FF002
:102AC800B04113434B6000BF0C37BD4680BC704714
:102AD80080B483B000AF78604FF0B0439B6823F0B8
:102AE80003024FF0B0417B6813438B6000BF0C3783
:102AF800BD4680BC704780B400AF4FF0B0439B68C0
:102B080003F00C031846BD4680BC704780B483B000
:102B180000AF78604FF0B0439B6823F0F0024FF0AD
:102B2800B0417B6813438B6000BF0C37BD4680BC47
:102B3800704780B483B000AF78604FF0B043D3F8EB
:102B4800083123F00F027B681B094FF0B041134393
:102B5800C1F8083100BF0C37BD4680BC704780B44F
:102B680083B000AF78604FF0B0439B6823F4E06215
:102B78004FF0B0417B6813438B6000BF0C37BD46F4
:102B880080BC704780B483B000AF78604FF0B0432A
:102B98009B6823F460524FF0B0417B6813438B600D
:102BA80000BF0C37BD4680BC704780B400AF4FF003
:102BB800B0439B6803F0F0031846BD4680BC7047DD
:102BC80080B400AF4FF0B043D3F808311B0103F0D5
:102BD800F0031846BD4680BC704780B400AF4FF084
:102BE800B0439B6803F4E0631846BD4680BC704759
:102BF80080B400AF4FF0B0439B6803F460531846AD
:102C0800BD4680BC704780B400AF4FF0B0431B682E
:102C18004FF0B04243F08073136000BFBD4680BCE4
:102C2800704780B400AF4FF0B0431B684FF0B0421C
:102C380023F08073136000BFBD4680BC704780B42A
:102C480000AF4FF0B0431B6803F00073B3F1007F8F
:102C580001D1012300E000231846BD4680BC70471F
:102C680080B400AF4FF0B043DB681B0A03F07F036A
:102C78001846BD4680BC704780B400AF4FF0B043E3
:102C8800DB6803F060431846BD4680BC704780B4DB
:102C980000AF4FF0B043DB6803F070031846BD4641
:102CA80080BC704780B400AF4FF0B043DB6803F0DE
:102CB80003031846BD4680BC704780B400AF4FF090
:102CC800B0439B6803F48033B3F5803F01D10123FF
:102CD80000E000231846BD4680BC704780B400AFB2
:102CE8004FF0B043D3F8083103F48033B3F5803F95
:102CF80001D1012300E000231846BD4680BC70477F
:102D080080B400AF4FF0B0439B6803F40033B3F5D1
:102D1800003F01D1012300E000231846BD4680BCD6
:102D2800704780B400AF4FF0B0439B6803F4802332
:102D3800B3F5802F01D1012300E000231846BD46DA
:102D480080BC704780B588B000AF78607B68002B86
:102D580001D101238BE3FFF7CEFEF861FFF7A2FF55
:102D6800B8617B681B6803F02003002B00F0C98062
:102D7800FB69002B05D0FB690C2B7BD1BB69012BB0
:102D880078D1FFF75AFE0346002B05D07B681B6AF3
:102D9800002B01D101236AE37B689A6A4FF0B043A4
:102DA8001B6803F00803002B05D04FF0B0431B68E5
:102DB80003F0F00306E04FF0B043D3F894301B095A
:102DC80003F0F003934222D27B689B6A184600F016
:102DD80051FD0346002B01D0012348E34FF0B043D7
:102DE8001B684FF0B04243F0080313604FF0B04344
:102DF8001B6823F0F0027B689B6A4FF0B0411343D5
:102E08000B607B685B6A1846FFF74EFE21E04FF0C7
:102E1800B0431B684FF0B04243F0080313604FF013
:102E2800B0431B6823F0F0027B689B6A4FF0B04107
:102E380013430B607B685B6A1846FFF735FE7B68B7
:102E48009B6A184600F016FD0346002B01D00123AB
:102E58000DE300F0D7FC0346A14A1360A14B1B68A1
:102E68001846FDF747FE0346FB74FB7C002B47D052
:102E7800FB7CFCE27B681B6A002B2CD0FFF7C1FDB2
:102E8800FDF742FE786108E0FDF73EFE02467B69E9
:102E9800D31A022B01D90323E9E2FFF7CEFD03463B
:102EA800002BF1D04FF0B0431B684FF0B04243F015
:102EB800080313604FF0B0431B6823F0F0027B68EF
:102EC8009B6A4FF0B04113430B607B685B6A1846FE
:102ED800FFF7EAFD15E0FFF7A2FDFDF715FE7861A3
:102EE80008E0FDF711FE02467B69D31A022B01D9CF
:102EF8000323BCE2FFF7A1FD0346002BF1D100E05C
:102F080000BF7B681B6803F00103002B5FD0FB69DF
:102F1800082B05D0FB690C2B0DD1BB69032B0AD1FB
:102F2800FFF7DBFC0346002B50D07B685B68002B67
:102F38004CD101239BE24FF0B0431B6823F480126D
:102F48007B689B684FF0B04113430B607B685B68FC
:102F5800B3F5803F02D1FFF7A4FC0DE07B685B6806
:102F6800B3F5041F04D1FFF76FFCFFF79AFC03E0E9
:102F7800FFF7A5FCFFF776FC7B685B68002B12D097
:102F8800FDF7C2FD786108E0FDF7BEFD02467B69EA
:102F9800D31A642B01D9032369E2FFF79EFC034689
:102FA800002BF1D013E0FDF7AFFD786108E0FDF7E5
:102FB800ABFD02467B69D31A642B01D9032356E281
:102FC800FFF78BFC0346002BF1D100E000BF7B68C4
:102FD8001B6803F00203002B4BD0FB69042B05D0C0
:102FE800FB690C2B13D1BB69022B10D1FFF7A2FC94
:102FF8000346002B05D07B681B69002B01D10123F8
:1030080035E27B685B691846FFF7A5FC31E07B6811
:103018001B69002B19D0FFF771FCFDF775FD78616E
:1030280008E0FDF771FD02467B69D31A022B01D92E
:1030380003231CE2FFF77EFC0346002BF1D07B68DC
:103048005B691846FFF787FC13E0FFF765FCFDF79F
:103058005BFD786108E0FDF757FD02467B69D31AEE
:10306800022B01D9032302E2FFF764FC0346002B7D
:10307800F1D17B681B6803F00803002B6FD07B68D5
:103088009B69002B57D04FF0B043D3F89430FB60C6
:103098007B68DA69FB6803F010039A4236D0FB6854
:1030A80003F00203002B06D0FB6803F00103002B9A
:1030B80001D10123DBE1FB6803F00103002B18D0E9
:1030C800FFF77EFCFDF720FD78610DE0FDF71CFDA4
:1030D80002467B69D31A112B06D90323C7E100BF27
:1030E8000000002004000020FFF77AFC0346002BB4
:1030F800ECD14FF0B043D3F8943023F010027B6842
:10310800DB694FF0B0411343C1F89430FFF748FC36
:10311800FDF7FAFC786108E0FDF7F6FC02467B69EA
:10312800D31A112B01D90323A1E1FFF759FC034658
:10313800002BF1D013E0FFF743FCFDF7E5FC7861C5
:1031480008E0FDF7E1FC02467B69D31A112B01D98F
:1031580003238CE1FFF744FC0346002BF1D17B6885
:103168001B6803F00403002B00F0D880FFF75AFB1C
:103178000346002B13D1FFF799FAFDF7C5FC7861D8
:1031880008E0FDF7C1FC02467B69D31A022B01D97E
:1031980003236CE1FFF746FB0346002BF1D07B6865
:1031A800DB68002B7BD07B68DB68852B03D07B68D2
:1031B800DB68052B09D14FF0B043D3F890304FF0BE
:1031C800B04243F00403C2F89030FDF79DFC7861EB
:1031D8004FF0B043D3F890304FF0B04243F00103C2
:1031E800C2F890300AE0FDF78FFC02467B69D31ADB
:1031F80041F28832934201D9032338E1FFF7BFFB3C
:103208000346002BEFD07B68DB68812B03D07B68FB
:10321800DB68852B21D1FDF777FC78614FF0B0434F
:10322800D3F890304FF0B04243F08003C2F89030AA
:103238000AE0FDF769FC02467B69D31A41F288323D
:10324800934201D9032312E14FF0B043D3F89030F1
:1032580003F40063002BECD060E0FDF755FC7861C7
:103268004FF0B043D3F890304FF0B04223F08003D2
:10327800C2F890300AE0FDF747FC02467B69D31A92
:1032880041F28832934201D90323F0E04FF0B04372
:10329800D3F8903003F40063002BECD13EE0FDF747
:1032A80033FC78614FF0B043D3F890304FF0B04220
:1032B80023F08003C2F890300AE0FDF725FC0246AF
:1032C8007B69D31A41F28832934201D90323CEE0B5
:1032D8004FF0B043D3F8903003F40063002BECD1E7
:1032E800FDF712FC78614FF0B043D3F890304FF0FF
:1032F800B04223F00103C2F890300AE0FDF704FC65
:1033080002467B69D31A41F28832934201D90323DA
:10331800ADE0FFF734FB0346002BEFD17B68DB6A97
:10332800002B00F0A380FB690C2B76D07B68DB6A4E
:10333800022B4BD1FFF775FCFDF7E6FB786108E03F
:10334800FDF7E2FB02467B69D31A0A2B01D9032356
:103358008DE0FFF774FC0346002BF1D14FF0B0432A
:10336800DA68454B13407A68116B7A68526B1143DF
:103378007A68926B120211437A68D26B11437A68A9
:10338800126C11437A68526C0A434FF0B0411343F0
:10339800CB60FFF738FC4FF0B043DB684FF0B0422A
:1033A80043F08053D360FDF7AFFB786108E0FDF789
:1033B800ABFB02467B69D31A0A2B01D9032356E0DB
:1033C800FFF73DFC0346002BF1D04FE0FFF729FC47
:1033D8004FF0B043DB684FF0B04223F00303D360F3
:1033E8004FF0B043DB684FF0B04223F0885323F42A
:1033F8008033D360FDF788FB786108E0FDF784FB34
:1034080002467B69D31A0A2B01D903232FE0FFF761
:1034180016FC0346002BF1D128E07B68DB6A012B00
:1034280001D1012323E04FF0B043DB68BB61BB69E6
:1034380003F003027B681B6B9A4215D1BB6903F04A
:1034480070027B685B6B9A420ED1BB6903F4FE4243
:103458007B689B6B1B029A4206D1BB6903F06042F2
:103468007B685B6C9A4201D0012300E00023184678
:103478002037BD4680BD00BF8C80C11180B584B0A7
:1034880000AF786039607B68002B01D101230FE120
:10349800894B1B6803F007033A689A421BD9864B8D
:1034A8001B6823F0070284493B6813430B60FDF750
:1034B8002BFBF86008E0FDF727FB0246FB68D31AF0
:1034C800022B01D90323F3E07B4B1B6803F00703AE
:1034D8003A689A42EFD17B681B6803F00203002B1D
:1034E80016D07B689B681846FFF710FBFDF70CFBAE
:1034F800F86008E0FDF708FB0246FB68D31A022BC8
:1035080001D90323D4E0FFF7D8FB0346002BF1D001
:103518007B681B6803F04003002B16D07B685B694F
:103528001846FFF706FBFDF7EFFAF86008E0FDF72D
:10353800EBFA0246FB68D31A022B01D90323B7E042
:10354800FFF7CCFB0346002BF1D07B681B6803F028
:103558000403002B16D07B68DB681846FFF7FFFAD8
:10356800FDF7D2FAF86008E0FDF7CEFA0246FB68EC
:10357800D31A022B01D903239AE0FFF7C1FB0346B4
:10358800002BF1D07B681B6803F00803002B17D0D1
:103598007B681B69DB001846FFF7F4FAFDF7B4FAFD
:1035A800F86008E0FDF7B0FA0246FB68D31A022B70
:1035B80001D903237CE0FFF7B4FB0346002BF1D0CD
:1035C8007B681B6803F00103002B43D07B685B68B2
:1035D800022B06D1FFF781F90346002B1ED10123E8
:1035E80066E07B685B68032B06D1FFF728FB034680
:1035F800002B13D101235BE07B685B68002B06D1AD
:10360800FFF71BFA0346002B08D1012350E0FFF710
:1036180091F90346002B01D1012349E07B685B68DF
:103628001846FFF755FAFDF76FFAF8600AE0FDF75C
:103638006BFA0246FB68D31A41F28832934201D9E9
:10364800032335E0FFF757FA02467B685B689B0067
:103658009A42ECD1184B1B6803F007033A689A4268
:103668001BD2154B1B6823F0070213493B68134311
:103678000B60FDF749FAF86008E0FDF745FA0246E5
:10368800FB68D31A022B01D9032311E00A4B1B68EC
:1036980003F007033A689A42EFD100F0B3F8034603
:1036A800064A1360064B1B681846FDF723FA0346C3
:1036B80018461037BD4680BD004000580000002065
:1036C8000400002090B587B000AF00237B61002381
:1036D8003B61FFF710FAB860FFF7E4FA7860BB685F
:1036E800002B05D0BB680C2B39D17B68012B36D158
:1036F800FFF7B3F90346002B15D1FFF7AEF90346E0
:10370800012B06D1FFF7B9F903461B0A03F00F0393
:1037180005E0FFF7BDF903461B0A03F00F03364A1D
:1037280052F8233014E0FFF798F90346012B06D12D
:10373800FFF7A3F903461B0903F00F0305E0FFF7A2
:10374800A7F903461B0903F00F032B4A52F823304D
:103758003B61BB68002B15D13B697B6112E0BB68FC
:10376800042B02D1254B7B610CE0BB68082B09D1E7
:10377800FFF786F80346012B02D1204B7B6101E05D
:103788001F4B7B61FFF7B7F903460C2B2FD1FFF7CF
:1037980089FA78607B68022B03D07B68032B03D0FF
:1037A8000DE0164BFB600DE0FFF76AF80346012BAE
:1037B80002D1124BFB6005E0114BFB6002E03B6954
:1037C800FB6000BFFFF74CFA0246FB6803FB02F4FC
:1037D800FFF75DFA03461B090133B4FBF3F4FFF767
:1037E8004BFA03465B0F0133B4FBF3F37B617B6950
:1037F80018461C37BD4690BD28C400080024F400B4
:103808000048E80198B500AFFFF75CFF0446FFF7F2
:10381800CCF903461B0903F00F03034A52F823307F
:10382800B4FBF3F3184698BDC8C3000898B500AFB9
:10383800FFF7E8FF0446FFF7D0F903461B0A034ADF
:1038480052F8233024FA03F3184698BD08C4000838
:1038580098B500AFFFF7D6FF0446FFF7C9F903464E
:10386800DB0A034A52F8233024FA03F3184698BDBA
:1038780008C4000890B585B000AF78607B681B0964
:1038880003F00F03104A52F82330FB60FFF798F952
:1038980003461B0903F00F030C4A52F82330FA6859
:1038A800B2FBF3F3BB60BB68094AA2FB03239C0C81
:1038B800FEF73EFF03461946204600F00BF8034684
:1038C80018461437BD4690BD28C40008C8C3000870
:1038D80083DE1B4380B58EB000AF786039603A4A0A
:1038E80007F1200392E80300186004331980374A6F
:1038F80007F1180392E80300186004331980344A6A
:1039080007F10C0307CA83E8070000237B633B68C1
:10391800B3F5007F1BD100233B6314E03B6B5B00D6
:1039280038333B4433F8183C1A467B68934207D82F
:103938003B6B9B0038333B4453F82C3C7B6321E0C2
:103948003B6B01333B633B6B022BE7D91AE0002347
:10395800FB6214E0FB6A5B0038333B4433F8203CDD
:103968001A467B68934207D8FB6A9B0038333B446E
:1039780053F82C3C7B6305E0FB6A0133FB62FB6A6E
:10398800022BE7D9134B1B6823F0070211497B6B05
:1039980013430B60FDF7B8F8B86208E0FDF7B4F818
:1039A8000246BB6AD31A022B01D9032307E0094B4D
:1039B8001B6803F007037A6B9A42EFD1002318467D
:1039C8003837BD4680BD00BFF0C00008F8C0000809
:1039D80000C100080040005880B400AF4FF0B04369
:1039E800D3F8903003F00203022B01D1012300E049
:1039F80000231846BD4680BC704780B483B000AF32
:103A080078604FF0B043D3F888207B681B0CDB4309
:103A18001A407B689BB24FF0B0411343C1F888301D
:103A280000BF0C37BD4680BC704780B483B000AF80
:103A380078604FF0B043D3F8883023F440724FF0E9
:103A4800B0417B681343C1F8883000BF0C37BD46CE
:103A580080BC704780B483B000AF78604FF0B0434B
:103A6800D3F8883023F440624FF0B0417B681343A9
:103A7800C1F8883000BF0C37BD4680BC704780B4A1
:103A880083B000AF78604FF0B043D3F888207B68EC
:103A98001B0903F47F23DB431A407B681B0103F4F3
:103AA8007F234FF0B0411343C1F8883000BF0C3773
:103AB800BD4680BC704780B483B000AF78604FF0DB
:103AC800B043D3F888207B681B0C1B04DB431A40E7
:103AD8007B681B044FF0B0411343C1F8883000BF26
:103AE8000C37BD4680BC704780B483B000AF7860A7
:103AF8004FF0B043D3F8883023F040424FF0B04144
:103B08007B681343C1F8883000BF0C37BD4680BCC2
:103B1800704780B483B000AF78604FF0B043D3F8FB
:103B2800883023F040524FF0B0417B681343C1F80E
:103B3800883000BF0C37BD4680BC704780B483B066
:103B480000AF78604FF0B043D3F8903023F4407260
:103B58004FF0B0417B681343C1F8903000BF0C3779
:103B6800BD4680BC704780B400AF4FF0B043D3F877
:103B7800903003F440731846BD4680BC704780B44B
:103B880000AF4FF0B043D3F890304FF0B04243F459
:103B98008033C2F8903000BFBD4680BC704780B407
:103BA80000AF4FF0B043D3F890304FF0B04223F459
:103BB8008033C2F8903000BFBD4680BC704700001B
:103BC80080B586B000AF786000237B610023FB746A
:103BD8000023BB747B681B6803F48033002B58D028
:103BE800FEF764FDFCF790FFF86009E0FCF78CFF36
:103BF8000246FB68D31A022B02D90323FB7406E0A2
:103C08007B4B1B6803F48073B3F5807FEED1FB7C9C
:103C1800002B3CD1FFF7A7FF02467B685B6B9A42FB
:103C28000FD04FF0B043D3F8903023F440737B614A
:103C3800FFF7A5FFFFF7B3FF4FF0B0427B69C2F86B
:103C480090307B6903F00203002B14D0FCF75CFF73
:103C5800F8600BE0FCF758FF0246FB68D31A41F204
:103C68008832934202D90323FB7404E0FFF7B4FEC1
:103C78000346012BEED1FB7C002B05D17B685B6BE7
:103C88001846FFF75BFF04E0FB7CBB7401E0FB7C9C
:103C9800BB747B681B6803F00103002B04D07B68AE
:103CA8005B681846FFF7A9FE7B681B6803F00203F0
:103CB800002B04D07B689B681846FFF79EFE7B6844
:103CC8001B6803F02003002B04D07B681B6918468F
:103CD800FFF7C0FE7B681B6803F40073002B04D059
:103CE8007B681B6A1846FFF7E6FE7B681B6803F4CF
:103CF8008063002B04D07B685B6A1846FFF7DBFE05
:103D08007B681B6803F40063002B04D07B689B6A04
:103D18001846FFF7D0FE7B681B6803F04003002BB2
:103D280004D07B685B691846FFF7A9FE7B681B68AF
:103D380003F08003002B04D07B689B691846FFF7CB
:103D48009EFE7B681B6803F48073002B04D07B689D
:103D5800DB691846FFF793FE7B681B6803F01003C6
:103D6800002B11D07B68DB681846FFF75EFE7B6886
:103D7800DB68B3F5807F07D14FF0B043DB684FF0C5
:103D8800B04243F08073D3607B681B6803F4004340
:103D9800002B10D07B681B6B1846FFF7A5FE7B68CD
:103DA8001B6B002B07D14FF0B043DB684FF0B042DC
:103DB80043F08073D3607B681B6803F48043002B57
:103DC80011D07B68DB6A1846FFF7A3FE7B68DB6AC5
:103DD800B3F1005F07D14FF0B043DB684FF0B0425A
:103DE80043F48033D360BB7C18461837BD4680BD8A
:103DF8000004005880B584B000AF78600123FB73DD
:103E08007B68002B68D07B6893F82D30DBB2002BE1
:103E180006D17B68002283F82C207868FCF7CCFC5C
:103E28007B68022283F82D202E4BCA225A622D4B22
:103E380053225A62786800F00FFA0346FB73FB7B43
:103E4800002B3FD1274B9B69264A23F08E6323F032
:103E580040039361234B9A697B6859687B681B69A7
:103E680019437B689B690B431E4913438B617B682D
:103E7800DA687B689B681B041A4913430B61194B6A
:103E8800DB6823F4F8527B68596A7B689B6A0B43AA
:103E980014491343CB60786800F012FA0346FB73A9
:103EA800FB7B002B0ED10F4B9B6923F060427B6894
:103EB800196A7B68DB6919437B685B690B430949AD
:103EC80013438B61074BFF225A62FB7B002B03D104
:103ED8007B68012283F82D20FB7B18461037BD46EE
:103EE80080BD00BF0028004090B587B000AFF860E3
:103EF800B9607A6000237B61FB6893F82C30012B52
:103F080001D10223F3E0FB68012283F82C20FB682F
:103F1800022283F82D20784BDB6803F440733B6161
:103F28003B69B3F5807F6AD07B68002B3AD1724B2E
:103F38009B6903F04003002B02D1BB680022DA70B2
:103F4800BB685B69B3F1004FBB681B78184600F08B
:103F5800F5F903461C04BB685B78184600F0EEF9D7
:103F680003461B021C43BB689B78184600F0E6F921
:103F7800034644EA0302BB68DB789B0542EA030474
:103F8800BB6893F82430184600F0D8F903461B069E
:103F980044EA0302BB681B6A1A43BB685B691343A4
:103FA8007B612CE0BB685B69B3F1803F0DD0BB68D7
:103FB8005B69B3F5000F08D04F4B9B6903F04003D2
:103FC800002B02D1BB680022DA70BB681B781A0488
:103FD800BB685B781B021343BA6892781A43BB68C4
:103FE800DB789B051A43BB6893F824301B061A43F9
:103FF800BB681B6A1A43BB685B6913437B613E4B12
:10400800CA225A623C4B53225A62BB689B6AB3F578
:10401800807F2CD1384B9B69374A23F488539361AE
:10402800354B0122DA653B69B3F5807F07D1BB6860
:104038009A69BB68DB69304913434B6406E02E4A32
:104048007B6913642C4ABB689B6953642A4ABB6822
:104058005B681367FB681B6B43F00102FB681A631C
:10406800254B9B69244A43F4885393612BE0224BE8
:104078009B69214A23F4085393611F4B0222DA6596
:104088003B69B3F5807F07D1BB689A69BB68DB6978
:1040980019491343CB6406E0174A7B699364164AAF
:1040A800BB689B69D364144ABB685B685367FB6849
:1040B8001B6B43F00202FB681A630F4B9B690E4AA5
:1040C80043F4085393610D4BD3F880300B4A43F403
:1040D8000033C2F88030084BFF225A62FB68012285
:1040E80083F82D20FB68002283F82C200023184633
:1040F8001C37BD4690BD00BF00280040000800588E
:1041080080B483B000AF786039607B6893F82C3056
:10411800012B01D1022348E07B68012283F82C207F
:104128007B68022283F82D20224BCA225A62214B37
:1041380053225A623B68B3F5807F15D11D4B9B69AA
:104148001C4A23F4885393611A4B5B6C194A23F079
:10415800004353647B681B6B23F001027B681A637E
:10416800144B0122DA6514E0124B9B69114A23F4BF
:10417800085393610F4BDB6C0E4A23F00043D36462
:104188007B681B6B23F002027B681A63094B0222CF
:10419800DA65084BFF225A627B68012283F82D20DA
:1041A8007B68002283F82C20002318460C37BD4674
:1041B80080BC70470028004080B584B000AF7860AC
:1041C800114B5A6D7B681B6B1340FB60FB6803F057
:1041D8000103002B05D00C4B0122DA657868FCF747
:1041E800A2FEFB6803F00203002B05D0064B022257
:1041F800DA65786800F04AF97B68012283F82D2097
:1042080000BF1037BD4680BD0028004080B584B08F
:1042180000AF78600F4BDB680E4A23F02003D360B1
:10422800FCF772FCF86009E0FCF76EFC0246FB68DC
:10423800D31AB3F57A7F01D9032306E0054BDB686F
:1042480003F02003002BEFD0002318461037BD469B
:1042580080BD00BF0028004080B584B000AF786002
:104268000023FB73154BDB6803F04003002B20D1C0
:10427800124BDB68114A43F08003D360FCF744FC1F
:10428800B8600DE0FCF740FC0246BB68D31AB3F5F2
:104298007A7F05D90323FB737B68032283F82D20DB
:1042A800064BDB6803F04003002B02D1FB7B032B9A
:1042B800E8D1FB7B18461037BD4680BD002800407A
:1042C80080B584B000AF78600023FB731A4BDB68BD
:1042D800194A23F08003D360174B9B6903F020032E
:1042E800002B0CD17868FFF791FF0346002B1ED0F6
:1042F8007B68032283F82D200323FB7317E00E4B02
:104308009B690D4A23F0200393617868FFF77EFFCD
:104318000346002B05D07B68032283F82D20032356
:10432800FB73054B9B69044A43F020039361FB7BB5
:1043380018461037BD4680BD0028004080B485B0BF
:1043480000AF0346FB710023FB60FB79FB7205E0BD
:10435800FB680133FB60FB7A0A3BFB72FB7A092B93
:10436800F6D8FB68DBB21B01DAB2FB7A1343DBB287
:1043780018461437BD4680BC7047000080B483B02F
:1043880000AF78607B6893F82C30012B01D10223B1
:104398001FE07B68012283F82C207B68022283F8C7
:1043A8002D200E4BCA225A620C4B53225A620B4BD9
:1043B8009B690A4A43F020039361084BFF225A6223
:1043C8007B68012283F82D207B68002283F82C204B
:1043D800002318460C37BD4680BC704700280040B3
:1043E80080B483B000AF78607B6893F82C30012BE1
:1043F80001D1022327E07B68012283F82C207B6807
:10440800022283F82D20124BCA225A62104B5322E3
:104418005A620F4B9B690E4A43F0800393610D4B20
:10442800D3F880300B4A43F48023C2F88030084B1D
:10443800FF225A627B68012283F82D207B680022C4
:1044480083F82C20002318460C37BD4680BC7047E3
:10445800002800400008005880B582B000AF78609E
:10446800094B5B6D03F04003002B05D0064B40223F
:10447800DA657868FCF761FD7B68012283F82D20F6
:1044880000BF0837BD4680BD0028004080B483B017
:1044980000AF786000BF0C37BD4680BC7047000095
:1044A80080B487B000AFF860B9607A60074B7B6171
:1044B800BB689B007A6913447B617B697A681A60E0
:1044C80000BF1C37BD4680BC704700BF00B100402C
:1044D80080B485B000AF78603960074BFB603B68FB
:1044E8009B00FA681344FB60FB681B681846143786
:1044F800BD4680BC704700BF00B1004080B483B0A7
:1045080000AF7860064B9B6823F4006204497B681F
:1045180013438B6000BF0C37BD4680BC704700BF9B
:104528000004005880B400AF054BD3F89030044A1B
:1045380043F40043C2F8903000BFBD4680BC7047CA
:104548000004005880B400AF054BD3F89030044AFB
:1045580023F40043C2F8903000BFBD4680BC7047CA
:104568000004005880B400AF034B4FF400629A6116
:1045780000BFBD4680BC70470004005880B400AF3F
:10458800064B5B6903F00203022B01D1012300E013
:1045980000231846BD4680BC704700BF0004005881
:1045A80080B400AF064B5B6903F00403042B01D110
:1045B800012300E000231846BD4680BC704700BFB9
:1045C8000004005880B400AF4FF0B043D3F89430E3
:1045D8004FF0B04223F40043C2F8943000BFBD4608
:1045E80080BC704780B400AF4FF0B043D3F894302C
:1045F80003F48043B3F5804F01D1012300E0002389
:104608001846BD4680BC704780B483B000AF786060
:10461800064BD3F8902005497B681343C1F89030C6
:1046280000BF0C37BD4680BC704700BF000800586B
:1046380080B584B000AF78607B68002B03D101237C
:10464800FB73FB7B4BE00023FB737B689B79DBB23E
:10465800002B05D17B6800225A717868FCF7B4F901
:104668007B6802229A71FFF7ADFF1F4B1A68134649
:10467800DB009B1A9B00DB0C642202FB03F3BB608C
:10468800BB68002B05D10123FB737B6801229A606C
:1046980007E0BB68013BBB60FFF7A4FF0346002BA4
:1046A800EED1FFF73FFF4FF48050FFF7ADFF4FF417
:1046B8000060FFF723FFFFF755FFFB7B002B0AD1B4
:1046C8007B681B68184600F0ADFA7B6801221A71F6
:1046D8007B6800229A607B6801229A71FB7B1846EE
:1046E8001037BD4680BD00BF0000002080B586B0F1
:1046F80000AFF8607A601A460B467B8113463B810F
:10470800FB689B79DBB2012B4AD1FB685B79012BF3
:1047180001D1022345E0FB6801225A71FB6802229D
:104728009A71F86800F04CFBFFF70CFF0D21F86850
:1047380000F098FA7B891B0A9BB2DBB21946F8682D
:1047480000F090FA7B89DBB21946F86800F08AFA23
:104758000023BB820AE0BB8A7A6813441B78194697
:10476800F86800F07FFABB8A0133BB82BA8A3B89BA
:104778009A42F0D3FFF7D6FEF86800F045FBFB68D5
:104788009B68002B02D00123FB7501E00023FB7519
:10479800FB6801229A71FB6800225A71FB7D00E0D8
:1047A800022318461837BD4680BD80B588B000AFD3
:1047B800F8607A601A460B467B8113463B817B681A
:1047C800BB61FB689B79DBB2012B4AD1FB685B7943
:1047D800012B01D1022345E0FB6801225A71F868D8
:1047E80000F0EEFAFFF7AEFE1D21F86800F03AFA85
:1047F8007B891B0A9BB2DBB21946F86800F032FAD3
:104808007B89DBB21946F86800F02CFA0021F868B9
:1048180000F028FA0023FB8209E0B969F86800F083
:1048280077FABB690133BB61FB8A0133FB82FA8AE1
:104838003B899A42F1D3FFF775FEF86800F0E4FA75
:10484800FB689B68002B02D00123FB7701E0002363
:10485800FB77FB6801229A71FB6800225A71FB7F83
:1048680000E0022318462037BD4680BD80B586B0DB
:1048780000AFF8607A601A460B46FB7213463B811C
:10488800FB689B79DBB2012B4AD1FB685B79012B72
:1048980001D1022345E0FB6801225A71F86800F053
:1048A8008FFAFB7A842B02D0FB7A942B03D1FB6816
:1048B80001221A7102E0FB6800221A71FFF742FE1A
:1048C800FB7A1946F86800F0CDF90023BB820AE0AC
:1048D800BB8A7A6813441B781946F86800F0C2F955
:1048E800BB8A0133BB82BA8A3B899A42F0D3FFF76D
:1048F80019FEFB7A842B02D0F86800F085FAFB6871
:104908009B68002B02D00123FB7501E00023FB7597
:10491800FB6801229A71FB6800225A71FB7D00E056
:10492800022318461837BD4680BD80B588B000AF51
:10493800F8607A601A460B46FB7213463B817B6827
:10494800BB61FB689B79DBB2012B3DD1FB685B79CE
:10495800012B01D1022338E0FB6801225A71F86863
:1049680000F02EFAFFF7EEFDFB7A1946F86800F022
:1049780079F90021F86800F075F90023FB8209E055
:10498800B969F86800F0C4F9BB690133BB61FB8AF7
:104998000133FB82FA8A3B899A42F1D3FFF7C2FDC1
:1049A800F86800F031FAFB689B68002B02D00123FD
:1049B800FB7701E00023FB77FB6801229A71FB6813
:1049C80000225A71FB7F00E0022318462037BD46BB
:1049D80080BD80B586B000AFF8607A601A460B4695
:1049E800FB7213463B81FB689B79DBB2012B3ED1FE
:1049F800FB685B79012B01D1022339E0FB680122B6
:104A08005A71F86800F0DCF9FFF79CFD0E21F86890
:104A180000F028F9FB7A1946F86800F023F900231A
:104A2800BB820AE0BB8A7A6813441B781946F86887
:104A380000F018F9BB8A0133BB82BA8A3B899A42D3
:104A4800F0D3FFF76FFDF86800F0DEF9FB689B68AC
:104A5800002B02D00123FB7501E00023FB75FB68E6
:104A680001229A71FB6800225A71FB7D00E0022343
:104A780018461837BD4680BD80B588B000AFF860CD
:104A88007A601A460B46FB7213463B817B68BB6112
:104A9800FB689B79DBB2012B41D1FB685B79012B69
:104AA80001D102233CE0FB6801225A71F86800F04A
:104AB80087F9FFF747FD1E21F86800F0D3F8FB7A65
:104AC8001946F86800F0CEF80021F86800F0CAF836
:104AD8000023FB8209E0B969F86800F019F9BB699D
:104AE8000133BB61FB8A0133FB82FA8A3B899A4214
:104AF800F1D3FFF717FDF86800F086F9FB689B68AB
:104B0800002B02D00123FB7701E00023FB77FB6831
:104B180001229A71FB6800225A71FB7F00E0022390
:104B280018462037BD4680BD80B584B000AF786098
:104B38000023BB8107F10C02022312217868FFF7DA
:104B4800F4FE3B7BFB81FB891B021AB27B7B1BB209
:104B580013431BB2FB81FB8903F00103002B02D036
:104B6800786805F00DFBFB895B0803F00103002B57
:104B780002D0786805F012FBFB899B0803F001035B
:104B8800002B02D0786805F061FBFB89DB0803F095
:104B98000103002B02D0786805F066FBFB891B092E
:104BA80003F00103002B02D0786805F06BFBFB894A
:104BB8005B0903F00103002B02D0786805F038FB8D
:104BC800FB899B0903F00103002B02D0786805F0EC
:104BD800F3FAFB89DB0903F00103002B0ED0FB89F4
:104BE8001B0A03F00103002B04D00121786805F0AB
:104BF800F1FA03E00021786805F0ECFAFB895B0A1A
:104C080003F00103002B02D0786805F001FB07F1DF
:104C18000C02022302217868FFF728FE00BF103734
:104C2800BD4680BD80B483B000AF78600C4B1B6874
:104C38000B4A23F040031360094A7B6843F441732D
:104C48001360074B4FF4B8525A60054B1B68044A6F
:104C580043F04003136000BF0C37BD4680BC70476B
:104C68000000015880B487B000AF78600B46FB7035
:104C78000023FB75234B1A681346DB009B1A9B0025
:104C8800DB0C642202FB03F3FB60FB68002B05D1FD
:104C98000123FB757B6801229A6008E0FB68013BF1
:104CA800FB60194B9B6803F00203022BEDD1174BF5
:104CB8003B613B69FA781A70124B1A681346DB009D
:104CC8009B1A9B00DB0C642202FB03F3FB60FB686E
:104CD800002B05D10123FB757B6801229A6008E04F
:104CE800FB68013BFB60084B9B6803F00103012B49
:104CF800EDD1054BDB68FB7D18461C37BD4680BCF3
:104D0800704700BF00000020000001580C00015847
:104D180080B487B000AF786039600023FB75254BFD
:104D28001A681346DB009B1A9B00DB0C642202FB0B
:104D380003F3FB60FB68002B05D10123FB757B683F
:104D480001229A6008E0FB68013BFB601A4B9B68F4
:104D580003F00203022BEDD1184B3B613B69FF22A4
:104D68001A70144B1A681346DB009B1A9B00DB0C65
:104D7800642202FB03F3FB60FB68002B05D10123CF
:104D8800FB757B6801229A6008E0FB68013BFB60C9
:104D9800094B9B6803F00103012BEDD1064BDB683F
:104DA800DAB23B681A70FB7D18461C37BD4680BCDA
:104DB800704700BF00000020000001580C00015897
:104DC80080B584B000AF78607B681B79012B11D166
:104DD8000C4B1A6813465B001344DB001B0CFB608A
:104DE800FFF7B0FBFB68013BFB60FB68002BF9D1C8
:104DF800FFF798FB786800F007F803461846103765
:104E0800BD4680BD0000002080B586B000AF786048
:104E18000023FB75124B1A6813465B001344DB0032
:104E28001B0D642202FB03F3FB60FFF7B9FB38613B
:104E3800FB68002B05D10123FB757B6802229A6071
:104E480009E0FB68013BFB60FFF798FB02463B6902
:104E58001340012BE9D0FB7D18461837BD4680BDAD
:104E68000000002080B483B000AF78604FF0B043FA
:104E7800D3F888207B681A407B681B0413431846C4
:104E88000C37BD4680BC704780B483B000AF7860F3
:104E98004FF0B043D3F888207B68134018460C378E
:104EA800BD4680BC704780B582B000AF78607B6833
:104EB800002B01D1012342E07B68D3F88430002B1A
:104EC80006D17B68002283F880207868FCF79AF97D
:104ED8007B682422C3F884207B681B681A687B6877
:104EE8001B6822F001021A60786800F04BFC034648
:104EF800012B01D1012322E07B689B6A002B02D0A1
:104F0800786800F0B3FE7B681B685A687B681B688A
:104F180022F490425A607B681B689A687B681B6819
:104F280022F02A029A607B681B681A687B681B68F3
:104F380042F001021A60786800F039FF034618460B
:104F48000837BD4680BD000080B58AB000AFF86064
:104F5800B9601346FB80FB68D3F88830202B42D118
:104F6800BB68002B02D0FB88002B01D101233BE05A
:104F7800FB6893F88030012B01D1022334E0FB68F1
:104F8800012283F88020FB680022DA66FB681B6830
:104F9800174A93421FD0FB681B685B6803F4000341
:104FA800002B18D0FB681B687B617B6953E8003FC6
:104FB8003B613B6943F080637B62FB681B681A4670
:104FC8007B6A3B62FA61F9693A6A41E80023BB618E
:104FD800BB69002BE6D1FB881A46B968F86800F06F
:104FE800F9FF034600E0022318462837BD4680BD76
:104FF8000080004080B58AB000AFF860B960134601
:10500800FB80FB68D3F88430202B7AD1BB68002B57
:1050180002D0FB88002B01D1012373E0FB6893F8D1
:105028008030012B01D102236CE0FB68012283F858
:105038008020FB68BA681A65FB68FA88A3F85420D0
:10504800FB68FA88A3F85620FB680022C3F88C2076
:10505800FB682122C3F88420FB689B6F002B2CD0AF
:10506800FB689B6F294ADA62FB689B6F284A1A63C0
:10507800FB689B6F274A5A63FB689B6F00229A6301
:10508800FB68986FFB681B6D1946FB681B68283323
:105098001A46FB88FCF7F6FD0346002B0DD0FB688B
:1050A8001022C3F88C20FB68002283F88020FB685C
:1050B8002022C3F88420012324E0FB681B684022D7
:1050C8001A62FB68002283F88020FB681B6808339B
:1050D8007B617B6953E8003F3B613B6943F0800398
:1050E8007B62FB681B6808337A6A3A62FB61F9697C
:1050F8003A6A41E80023BB61BB69002BE5D1002374
:1051080000E0022318462837BD4680BD77630008B3
:10511800116400082D64000880B5BAB000AF78604B
:105128007B681B68DB69C7F8E4307B681B681B6811
:10513800C7F8E0307B681B689B68C7F8DC30D7F895
:10514800E42040F60F031340C7F8D830D7F8D8301A
:10515800002B1BD1D7F8E43003F02003002B15D027
:10516800D7F8E03003F02003002B05D1D7F8DC3066
:1051780003F08053002B09D07B681B6F002B00F0D5
:10518800D6827B681B6F78689847D0E2D7F8D8300A
:10519800002B00F01F81D7F8DC208B4B1340002B2D
:1051A80006D1D7F8E020894B1340002B00F012817C
:1051B800D7F8E43003F00103002B11D0D7F8E03022
:1051C80003F48073002B0BD07B681B6801221A62E2
:1051D8007B68D3F88C3043F001027B68C3F88C20DD
:1051E800D7F8E43003F00203002B11D0D7F8DC30F5
:1051F80003F00103002B0BD07B681B6802221A62A4
:105208007B68D3F88C3043F004027B68C3F88C20A9
:10521800D7F8E43003F00403002B11D0D7F8DC30C2
:1052280003F00103002B0BD07B681B6804221A6271
:105238007B68D3F88C3043F002027B68C3F88C207B
:10524800D7F8E43003F00803002B17D0D7F8E03084
:1052580003F02003002B05D1D7F8DC205A4B13406C
:10526800002B0BD07B681B6808221A627B68D3F876
:105278008C3043F008027B68C3F88C20D7F8E43000
:1052880003F40063002B12D0D7F8E03003F08063FA
:10529800002B0CD07B681B684FF400621A627B6895
:1052A800D3F88C3043F020027B68C3F88C207B68ED
:1052B800D3F88C30002B00F03C82D7F8E43003F0B0
:1052C8002003002B13D0D7F8E03003F02003002B85
:1052D80005D1D7F8DC3003F08053002B07D07B686A
:1052E8001B6F002B03D07B681B6F786898477B681F
:1052F800D3F88C30C7F8D4307B681B689B6803F000
:105308004003402B05D0D7F8D43003F02803002BF6
:105318004FD0786800F0C6FF7B681B689B6803F075
:105328004003402B41D17B681B680833C7F89C3089
:10533800D7F89C3053E8003FC7F89830D7F8983032
:1053480023F04003C7F8D0307B681B680833D7F8D0
:10535800D020C7F8A820C7F8A430D7F8A410D7F8E9
:10536800A82041E80023C7F8A030D7F8A030002BC8
:10537800D9D17B68DB6F002B13D07B68DB6F144AB5
:105388009A637B68DB6F1846FCF758FD0346002BD1
:1053980017D07B68DB6F9B6B7A68D26F1046984793
:1053A8000FE0786800F0D9F90BE0786800F0D5F9DB
:1053B80007E0786800F0D1F97B680022C3F88C20F8
:1053C800B7E100BFB5E100BF0100001020010004F3
:1053D800AD6400087B68DB6E012B40F04A81D7F88A
:1053E800E43003F01003002B00F04381D7F8E030DD
:1053F80003F01003002B00F03C817B681B6810222F
:105408001A627B681B689B6803F04003402B40F0DE
:10541800B5807B68DB6F1B685B68A7F8BE30B7F8A0
:10542800BE30002B00F087817B68B3F85C30B7F89A
:10543800BE209A4280F07F817B68B7F8BE20A3F82F
:105448005E207B68DB6F1B681B6803F02003002B62
:1054580040F086807B681B68C7F88830D7F88830AA
:1054680053E8003FC7F88430D7F8843023F48073BA
:10547800C7F8B8307B681B681A46D7F8B830C7F841
:105488009430C7F89020D7F89010D7F8942041E8C6
:105498000023C7F88C30D7F88C30002BDAD17B6822
:1054A8001B6808337B677B6F53E8003F3B673B6FA4
:1054B80023F00103C7F8B4307B681B680833D7F8BA
:1054C800B420C7F88020FB67F96FD7F8802041E83F
:1054D8000023BB67BB6F002BE1D17B681B680833D7
:1054E8003B663B6E53E8003FFB65FB6D23F04003D2
:1054F800C7F8B0307B681B680833D7F8B020FA6665
:10550800BB66B96EFA6E41E800237B667B6E002BA2
:10551800E3D17B682022C3F888207B680022DA6602
:105528007B681B68FB64FB6C53E8003FBB64BB6C87
:1055380023F01003C7F8AC307B681B681A46D7F80D
:10554800AC30BB657A65796DBA6D41E800233B657F
:105558003B6D002BE4D17B68DB6F1846FCF710FC31
:105568007B68B3F85C207B68B3F85E309BB2D31AD3
:105578009BB21946786800F0F9F8DCE07B68B3F86C
:105588005C207B68B3F85E309BB2D31AA7F8CE30A4
:105598007B68B3F85E309BB2002B00F0CE80B7F882
:1055A800CE30002B00F0C9807B681B68BB63BB6BE7
:1055B80053E8003F7B637B6B23F49073C7F8C830D4
:1055C8007B681B681A46D7F8C8307B643A64396C24
:1055D8007A6C41E80023FB63FB6B002BE4D17B680A
:1055E8001B6808337B627B6A53E8003F3B623B6A77
:1055F80023F0805323F00103C7F8C4307B681B688D
:105608000833D7F8C4203A63FB62F96A3A6B41E879
:105618000023BB62BB6A002BE1D17B682022C3F860
:1056280088207B680022DA667B6800221A677B681C
:105638001B683B613B6953E8003FFB60FB6823F054
:105648001003C7F8C0307B681B681A46D7F8C0300B
:10565800FB61BA61B969FA6941E800237B617B693A
:10566800002BE4D1B7F8CE301946786800F07EF800
:1056780063E0D7F8E43003F48013002B0ED0D7F89A
:10568800DC3003F48003002B08D07B681B684FF4E0
:1056980080121A62786801F0A3FB51E0D7F8E43071
:1056A80003F08003002B14D0D7F8E03003F0800318
:1056B800002B05D1D7F8DC3003F40003002B08D009
:1056C8007B685B6F002B3AD07B685B6F7868984784
:1056D80035E0D7F8E43003F04003002B09D0D7F8C1
:1056E800E03003F04003002B03D0786800F0F0FEB0
:1056F80026E0D7F8E43003F40003002B09D0D7F8EC
:10570800E03003F08043002B03D0786801F07AFB87
:1057180016E0D7F8E43003F08073002B10D0D7F8E8
:10572800E030002B0CDA786801F063FB08E000BF7A
:1057380006E000BF04E000BF02E000BF00E000BFD9
:10574800E837BD4680BD00BF80B483B000AF786045
:1057580000BF0C37BD4680BC704780B483B000AF33
:10576800786000BF0C37BD4680BC704780B483B0FA
:1057780000AF78600B467B8000BF0C37BD4680BC0D
:10578800704700002DE9B04F8CB000AF786100235E
:1057980087F82A307B699A687B691B691A437B6999
:1057A8005B691A437B69DB691343FB627B691B688E
:1057B8001A68944B13407A691268F96A0B431360AC
:1057C8007B691B685B6823F440517B69DA687B69F5
:1057D8001B680A435A607B699B69FB627B691B688B
:1057E800894A934204D07B691B6AFA6A1343FB62B5
:1057F8007B691B689B6823F06E4323F430637A69E6
:105808001268F96A0B4393607B691B68DB6A23F0B3
:105818000F017B695A6A7B691B680A43DA627B69F4
:105828001B687A4A934227D10320FFF71BFB0346E4
:10583800A3F54033032B1BD801A252F823F000BF75
:10584800595800086958000861580008715800083C
:10585800012387F82B3080E0022387F82B307CE087
:10586800042387F82B3078E0082387F82B3074E07E
:10587800102387F82B3070E07B691B68644A9342D9
:1058880038D10C20FFF7EEFA0346A3F540230C2B82
:105898002CD801A252F823F0D5580008F558000872
:1058A800F5580008F5580008E5580008F5580008AC
:1058B800F5580008F5580008DD580008F5580008A4
:1058C800F5580008F5580008ED580008002387F837
:1058D8002B3042E0022387F82B303EE0042387F880
:1058E8002B303AE0082387F82B3036E0102387F86E
:1058F8002B3032E07B691B68434A93422AD14FF42C
:105908004060FFF7C1FA0346B3F5406F1AD0B3F50C
:10591800406F1BD8B3F5006F0CD0B3F5006F15D8E6
:10592800002B03D0B3F5806F08D00FE0002387F871
:105938002B3012E0022387F82B300EE0042387F87F
:105948002B300AE0082387F82B3006E0102387F86D
:105958002B3002E0102387F82B307B691B682A4A1A
:10596800934240F0A48097F82B30082B23D801A24B
:1059780052F823F0A1590008BF590008A959000896
:10598800BF590008AF590008BF590008BF5900089F
:10599800BF590008B7590008FDF748FF786210E0C2
:1059A8001C4B7B620DE0FDF78DFE786209E04FF439
:1059B80000437B6205E000237B62012387F82A30DD
:1059C80000BF7B6A002B00F037817B695B6A124A53
:1059D80032F813301A467B6AB3FBF2F3BB617B697A
:1059E8005A6813465B001344BA699A4205D37B6927
:1059F8005B681B03BA699A4210D9012387F82A30D9
:105A08001AE100BFF369FFCF008000400038014071
:105A1800004400400024F400B8C400087B6A002257
:105A2800BB60FA607B695B6A8E4A32F813309BB2BE
:105A380000223B607A60D7E90023D7E90201FAF730
:105A48009FFB02460B46104619464FF000024FF0E6
:105A580000030B0243EA10630202796949684908A6
:105A680000200C46054612EB040843EB05097B6948
:105A78005B6800229A46934652465B464046494632
:105A8800FAF77EFB02460B4613463B623B6AB3F5C8
:105A9800407F08D33B6AB3F5801F04D27B691B683B
:105AA8003A6ADA60C8E0012387F82A30C4E07B69E3
:105AB800DB69B3F5004F68D197F82B30082B28D84D
:105AC80001A252F823F000BFF55A0008FD5A000859
